:020000040000FA
:1000000002EF00F0300E006E0ED8005018D8E80E47
:10001000016E030E026E28D8002A390E0064F5D74F
:10002000300E006EF2D7F29E9268936A946A956AD7
:10003000968096829684826A836A816A0AD0016E6B
:100040009EA8FED7000000000000000001C0ADFF28
:100050001200949C948E190EAF6EAC84AC98AB8E4B
:100060009D98AC9CAC8A120001500210D8B40CD000
:100070005A0E036E0352D8B403D000000306FAD719
:0A0080000106000E025AF0D712002C
:020000040030CA
:04000000FFF1F8FE16
:00000001FF
