:020000040000FA
:1000000002EF00F0300E006E300E016E09D83BD8C2
:10001000016E015012D8640E026E036A23D8F7D71E
:10002000F29E9268936A946A956A96809682968404
:10003000826A836A816A0BD82ED0026E9EA8FED790
:10004000000000000000000002C0ADFF1200949C00
:10005000948E190EAF6EAC84AC98AB8E9D98AC9C10
:10006000AC8A120002500310D8B40CD0500E046EAB
:100070000452D8B403D000000406FAD70206000EDA
:10008000035AF0D712009EAAFED70000000000001D
:100090000000AE501200949C948E190EAF6EAC848A
:0C00A000AC98AB8E9D9AAB9CAB88120014
:020000040030CA
:04000000FFF1F8FE16
:00000001FF
