:10000000672899000D0884009301F03093050830AB
:100010009A0003100318930A1C20990C9A0B0A28C3
:1000200000009D1A130C1C20152803141C20110815
:10003000970010084120622884139D1F2B28000878
:1000400012041D1F12068000841700081204031CEE
:1000500012068000362800081204031C12061D1B1D
:100060001206800084171209800536281D081F39E2
:10007000FF3E95001C08F53E0318950A00004E2827
:1000800097019600FF309607031C9707031C622810
:1000900003309500DF304E2042289501E83E940061
:1000A0009509FC30031C572894070318542894071B
:1000B0000000950F542814185D28941C6128000036
:1000C00061280800831383120313000008008316BD
:1000D0008501831285010330831686008312860111
:1000E000A001A101061C95280A30A0000130A10042
:1000F000043021020318942805308D00013092004D
:100100009D0154309C009101900120308C005430AE
:1001100001205830012052300120583001202008A1
:100120000120A10A031D78289628A001861CB92861
:100130001430A0000130A100043021020318B828B7
:1001400005308D00013092009D0154309C009101DA
:10015000900120308C005430012058300120523062
:1001600001205830012020080120A10A031D9C28ED
:06017000BA28A00172286C
:02400E00F13F80
:00000001FF
