:020000040000FA
:10000000831686018312860101308600412041203B
:10001000803086004120412002308600412041206E
:10002000403086004120412004308600412041209C
:1000300020308600412041200830860041204120A8
:1000400010308600412041200830860041204120A8
:10005000203086004120412004308600412041208C
:10006000403086004120412002308600412041205E
:10007000803086004120412001308600412041200F
:100080000428FF308D00FF308C008C0B45288D0B31
:0400900043280800F9
:02400E00F33F7E
:00000001FF
