:020000040000FA
:1000000002EF00F013D83FD8006A800E47D8DC0E0C
:10001000066E050E076E0DD80A0E006E800E3ED8D5
:10002000DC0E066E050E076E04D8EED7956A966A4A
:10003000120006500710D8B40CD08C0E086E08526F
:10004000D8B403D000000806FAD70606000E075AF7
:10005000F0D71200056E140E066E076AEADF05C0BF
:1000600083FF8492849084801200056E640E066E75
:10007000076ADFDF05C083FF848284908480010EDD
:10008000066E076AD6D7849484808482380EE2DFB5
:10009000010EE0DF0D0EDEDF060EDCD7016E026A18
:1000A0000250002419D8000AD8B402D0022AF8D786
:1000B0000150D0DF036A025003600DD003500024CA
:1000C0000BD8D3DF046A1E0E046003D00000042A9C
:1000D000FAD7032AF0D71200056E0550EE0FF66E20
:1000E000000EF76AF722F86A0800F55012004F4E2A
:1000F000695220414B694E004C4344207579677525
:0A0100006C616D61202020200000DA
:00000001FF
