:020000040000FA
:0400000009EF00F014
:10000800F2A202D02ED8F292100012D8CFD8066AE7
:10001800800ED7D8200E0C6E030E0D6E11D8010E6F
:100028000C6E0D6A0DD80D0E066E800ECAD8F7D765
:10003800F288F19CF28E9368956A966A836A120038
:100048000C500D10D8B40CD08C0E0E6E0E52D8B4C5
:1000580003D000000E06FAD70C06000E0D5AF0D792
:100068001200026A81B8022A036A81BA032A046A62
:1000780081BC042A056A81BE052AD890033402246B
:10008800016E040E0402F3500126080E0502F35017
:10009800012601BE3DD0060E01643AD01C0E012493
:1000A800AED8826E01500C0AD8B403D00E0E01628D
:1000B8000DD00C0E016205D02C0E066E8E0E81D866
:1000C8005BD02E0E066E8E0E7CD856D00150080AD4
:1000D800D8B40AD0010AD8B40CD0030AD8B40ED0C8
:1000E800070AD8B410D048D0300E066E8E0E69D8E4
:1000F80043D0320E066E8E0E64D83ED0340E066E95
:100108008E0E5FD839D0360E066E8E0E5AD834D081
:100118001C0E012474D8826E0150D8B410D0010A84
:10012800D8B412D0030AD8B414D0060AD8B416D05A
:10013800010AD8B418D0030AD8B41AD01DD0380E82
:10014800066E8E0E3ED818D03A0E066E8E0E39D830
:1001580013D03C0E066E8E0E34D80ED03E0E066EB0
:100168008E0E2FD809D0400E066E8E0E2AD804D0D7
:10017800420E066E8E0E25D812000B6E140E0C6EF3
:100188000D6A5EDF0BC083FF849284908480120026
:100198000B6E320E0C6E0D6A53DF0BC083FF848228
:1001A80084908480010E0C6E0D6A4AD784948480F2
:1001B8008482380EE2DF010EE0DF0C0EDEDF060E71
:1001C800DCD7076E086A0850062419D8000AD8B484
:1001D80002D0082AF8D70750D0DF096A085009600A
:1001E8000DD0095006240BD8D3DF0A6A1E0E0A6008
:1001F80003D000000A2AFAD7092AF0D712000B6E9A
:100208000B501C0FF66E020EF76AF722F86A080008
:10021800F55012005475736120626173696E697AD2
:1002280000426173696C616E20547573203A200036
:100238000102030004050600070809000F000F006B
:100248002A0023003700380039003000310032001E
:080258003300340035003600CC
:020000040030CA
:04000000FFF1F8FE16
:00000001FF
