:020000040000FA
:1000000002EF00F019D8C284C2B4FED78182C4CFF7
:1000100000F0016A28D88192C41C006E016A23D8BE
:100020008390C4CFC9FF9EA6FED79E968380010E03
:10003000006E016A18D8E6D7F29E956AD00E946ECB
:10004000826A9268936A816AAC84AC88C79EC79CB6
:10005000C790C69AC68AC688C696C694C692C680F7
:10006000410EC26E120000500110D8B40CD08C0E9C
:10007000026E0252D8B403D000000206FAD700067E
:08008000000E015AF0D7120036
:020000040030CA
:04000000FFF1F8FE16
:00000001FF
