:020000040000FA
:1000000002EF00F010D89EA6FED7C9CF00F09E9652
:10001000818200C001F0026A61D88192001C016EE9
:10002000026A5CD8EFD7F29E956A9268966A180EBB
:10003000946E936A816AAC84AC88C79EC79CC79053
:10004000C69EC69CC69AC68AC688C696C684C692EE
:10005000C680410EC26E12007F6E140E016E026ADF
:100060003DD87FC083FF84928490848012007F6E8D
:10007000140E016E026A32D87FC083FF848284909E
:100080008480010E016E026A29D084948480848267
:10009000380EE2DF010EE0DF0D0EDEDF060EDCD7EC
:1000A0007F6E7F6A7F507F242AD8000AD8B402D09E
:1000B0007F2AF8D77F50D0DF7F6A7F507F600DD0D6
:1000C0007F507F241CD8D3DF7F6A1E0E7F6003D051
:1000D00000007F2AFAD77F2AF0D7120001500210C1
:1000E000D8B40CD08C0E036E0352D8B403D00000E9
:1000F0000306FAD70106000E025AF0D71200000CD0
:020000040030CA
:04000000FFF1F8FE16
:00000001FF
