:020000040000FA
:1000000002EF00F00AD8010E006E016AC1D827D8AD
:10001000836E03C004F010D8FAD7F29E94869488B9
:10002000C686C694C692C6900A0EC86EC68AF00EE0
:10003000956E836A826A1200C580C5B0FED79E960F
:10004000020EC96E9EA6FED79E9604C0C9FF9EA64C
:10005000FED79E96C584C5B4FED79E9612008380B7
:1000600083A806D0320E006E016A92D8010E036E8C
:1000700083AA06D0320E006E016A8AD8020E036E81
:1000800083AC06D0320E006E016A82D8030E036E76
:1000900083AE06D0320E006E016A7AD80A0E036E65
:1000A0008390010E006E016A73D8838283A806D004
:1000B000320E006E016A6CD8040E036E83AA06D05D
:1000C000320E006E016A64D8050E036E83AC06D052
:1000D000320E006E016A5CD8060E036E83AE06D047
:1000E000320E006E016A54D80B0E036E8392010E1D
:1000F000006E016A4DD8838483A806D0320E006E4C
:10010000016A46D8070E036E83AA06D0320E006E2F
:10011000016A3ED8080E036E83AC06D0320E006E24
:10012000016A36D8090E036E83AE06D0320E006E19
:10013000016A2ED80C0E036E8394010E006E016AC4
:1001400027D8838683A806D0320E006E016A20D895
:100150000E0E036E83AA05D0320E006E016A18D807
:10016000036A83AC06D0320E006E016A11D80F0EFE
:10017000036E83AE06D0320E006E016A09D80D0EF2
:10018000036E8396010E006E016A02D803501200BE
:1001900000500110D8B40CD08C0E026E0252D8B4AC
:1001A00003D000000206FAD70006000E015AF0D76D
:0201B00012003B
:020000040030CA
:04000000FFF1F8FE16
:00000001FF
