:100000006028162003180128212097010830960047
:10001000222016200318970A991E9701950C960B1B
:100020000828991A95132220150808000C08840046
:1000300011088417800484130005191B1106FF3E64
:100040000800121719081F39FF3E94001808F53EE2
:100050000318940A121F3F281213930002305620EF
:100060003F2896019500FF309507031C9607031C57
:100070005B2803309400DF303F2033289401E83EB2
:1000800093009409FC30031C482893070318452863
:1000900093070000940F452813184E28931C5228EC
:1000A0000000522808000310940C930CFF3E031824
:1000B000532813085B2883138312031300000800DE
:1000C0000130831685008312850183168601831211
:1000D00086019A0105308C0001309100990154305D
:1000E00098000120543C031D71280120583C031D39
:1000F00071280120523C031D71280120583C031D2A
:10010000712801209A000A301A02031D91288316D3
:10011000061083120614FA3031208316061083125B
:10012000061014301A02031D9F28831686108312AE
:100130008614FA30312083168610831286106A28BE
:040140006300A02890
:02400E00F13F80
:00000001FF
